:1000000012C024C023C022C021C020C01FC01EC0F7
:100010001DC01CC01BC01AC019C018C017C016C014
:1000200015C014C013C011241FBECFE5D4E0DEBF3D
:10003000CDBF10E0A0E6B0E0E4E9F2E002C0059038
:100040000D92A437B107D9F7B4D022C1D9CFCF933D
:10005000DF93EC012AE030E0B901DED0CB01B90139
:10006000DBD09C01FC01EE0FFF1FE05AFF4F8081A7
:1000700086FF02C0929A01C09298F901EE0FFF1F0D
:10008000E05AFF4F808185FF02C0939A01C0939888
:10009000F901EE0FFF1FE05AFF4F808184FF02C07D
:1000A000C49A01C0C498F901EE0FFF1FE05AFF4F38
:1000B000808183FF02C0C59A01C0C598F901EE0F87
:1000C000FF1FE05AFF4F808182FF02C0C09A01C02B
:1000D000C098F901EE0FFF1FE05AFF4F808181FFAA
:1000E00002C0919A01C09198220F331FF901E05A82
:1000F000FF4F808180FF02C0909A01C09098CE018E
:100100006AE070E089D0FC01EE0FFF1FE05AFF4F5C
:10011000208126FF02C0969A01C09698FC01EE0F3E
:10012000FF1FE05AFF4F208125FF02C0979A01C0B0
:100130009798FC01EE0FFF1FE05AFF4F208124FF2C
:1001400002C0C29A01C0C298FC01EE0FFF1FE05A24
:10015000FF4F208123FF02C0C19A01C0C198FC015A
:10016000EE0FFF1FE05AFF4F208122FF02C0C39A0B
:1001700001C0C398FC01EE0FFF1FE05AFF4F208122
:1001800021FF02C0959A01C09598880F991FFC0124
:10019000E05AFF4F808180FF02C0949A01C094987A
:1001A000DF91CF9108958FE387BB81B38FEF81BB40
:1001B0000895F9DF80E090E056D090E09C012F5F39
:1001C0003F4F6901C9014FD0082F10E083B380FB76
:1001D000EE24E0F8F12CC8013ADF01C07E0183B3C0
:1001E0008170C82F30E0D32FEF28C1F32097B1F7EB
:1001F00098012F703078332334F421503109206F67
:100200003F6F2F5F3F4F89010F5F1F4FC8011FDFF7
:10021000602FC60130D0E2CF97FB072E16F4009472
:1002200006D077FD08D00BD007FC05D03EF49095A2
:1002300081959F4F0895709561957F4F0895AA1BF2
:10024000BB1B51E107C0AA1FBB1FA617B70710F0C1
:10025000A61BB70B881F991F5A95A9F780959095F3
:10026000BC01CD010895E199FECF9FBB8EBBE09A02
:1002700099278DB30895262FE199FECF9FBB8EBBA2
:100280002DBB0FB6F894E29AE19A0FBE019608953D
:04029000F894FFCF10
:100294007E0030006D00790033005B005F00700069
:0402A4007F007B005C
:00000001FF
